{
	"data": {
		"bytecode": {
			"linkReferences": {},
			"object": "608060405234801561001057600080fd5b50610f97806100206000396000f3fe608060405234801561001057600080fd5b50600436106100575760003560e01c8063385a1e3e1461005c5780633b3a170d14610078578063801b33d5146100965780639332d2e6146100a0578063d696612c146100bc575b600080fd5b61007660048036038101906100719190610827565b6100d8565b005b6100806102b9565b60405161008d9190610d09565b60405180910390f35b61009e6102d2565b005b6100ba60048036038101906100b591906107fe565b6102d4565b005b6100d660048036038101906100d191906108a6565b610555565b005b6040516020016100e790610c34565b604051602081830303815290604052805190602001208260405160200161010e9190610c1d565b6040516020818303038152906040528051906020012014610164576040517f08c379a000000000000000000000000000000000000000000000000000000000815260040161015b90610c69565b60405180910390fd5b60128110156101a8576040517f08c379a000000000000000000000000000000000000000000000000000000000815260040161019f90610cc9565b60405180910390fd5b60018060003373ffffffffffffffffffffffffffffffffffffffff1673ffffffffffffffffffffffffffffffffffffffff16815260200190815260200160002060010160016101000a81548160ff0219169083151502179055506000600160003373ffffffffffffffffffffffffffffffffffffffff1673ffffffffffffffffffffffffffffffffffffffff16815260200190815260200160002060010160006101000a81548160ff02191690831515021790555082600160003373ffffffffffffffffffffffffffffffffffffffff1673ffffffffffffffffffffffffffffffffffffffff16815260200190815260200160002060000190805190602001906102b39291906106c9565b50505050565b60008060009054906101000a900463ffffffff16905090565b565b60011515600160003373ffffffffffffffffffffffffffffffffffffffff1673ffffffffffffffffffffffffffffffffffffffff16815260200190815260200160002060010160019054906101000a900460ff1615151461036a576040517f08c379a000000000000000000000000000000000000000000000000000000000815260040161036190610ca9565b60405180910390fd5b600160003373ffffffffffffffffffffffffffffffffffffffff1673ffffffffffffffffffffffffffffffffffffffff16815260200190815260200160002060010160009054906101000a900460ff16156103fa576040517f08c379a00000000000000000000000000000000000000000000000000000000081526004016103f190610c49565b60405180910390fd5b60018060003373ffffffffffffffffffffffffffffffffffffffff1673ffffffffffffffffffffffffffffffffffffffff16815260200190815260200160002060010160006101000a81548160ff0219169083151502179055506001600260008373ffffffffffffffffffffffffffffffffffffffff1673ffffffffffffffffffffffffffffffffffffffff16815260200190815260200160002060020160009054906101000a900463ffffffff166104b39190610dac565b600260008373ffffffffffffffffffffffffffffffffffffffff1673ffffffffffffffffffffffffffffffffffffffff16815260200190815260200160002060020160006101000a81548163ffffffff021916908363ffffffff16021790555060016000808282829054906101000a900463ffffffff166105349190610dac565b92506101000a81548163ffffffff021916908363ffffffff16021790555050565b60405160200161056490610c34565b604051602081830303815290604052805190602001208360405160200161058b9190610c1d565b60405160208183030381529060405280519060200120146105e1576040517f08c379a00000000000000000000000000000000000000000000000000000000081526004016105d890610ce9565b60405180910390fd5b6023821015610625576040517f08c379a000000000000000000000000000000000000000000000000000000000815260040161061c90610c89565b60405180910390fd5b80600260003373ffffffffffffffffffffffffffffffffffffffff1673ffffffffffffffffffffffffffffffffffffffff1681526020019081526020016000206000018190555083600260003373ffffffffffffffffffffffffffffffffffffffff1673ffffffffffffffffffffffffffffffffffffffff16815260200190815260200160002060010190805190602001906106c29291906106c9565b5050505050565b8280546106d590610e74565b90600052602060002090601f0160209004810192826106f7576000855561073e565b82601f1061071057805160ff191683800117855561073e565b8280016001018555821561073e579182015b8281111561073d578251825591602001919060010190610722565b5b50905061074b919061074f565b5090565b5b80821115610768576000816000905550600101610750565b5090565b600061077f61077a84610d55565b610d24565b90508281526020810184848401111561079757600080fd5b6107a2848285610e32565b509392505050565b6000813590506107b981610f33565b92915050565b600082601f8301126107d057600080fd5b81356107e084826020860161076c565b91505092915050565b6000813590506107f881610f4a565b92915050565b60006020828403121561081057600080fd5b600061081e848285016107aa565b91505092915050565b60008060006060848603121561083c57600080fd5b600084013567ffffffffffffffff81111561085657600080fd5b610862868287016107bf565b935050602084013567ffffffffffffffff81111561087f57600080fd5b61088b868287016107bf565b925050604061089c868287016107e9565b9150509250925092565b600080600080608085870312156108bc57600080fd5b600085013567ffffffffffffffff8111156108d657600080fd5b6108e2878288016107bf565b945050602085013567ffffffffffffffff8111156108ff57600080fd5b61090b878288016107bf565b935050604061091c878288016107e9565b925050606061092d878288016107e9565b91505092959194509250565b600061094482610d85565b61094e8185610da1565b935061095e818560208601610e41565b80840191505092915050565b6000610977602083610d90565b91507f4e6f2070756564657320766f746172202b20646520756e61206f636173696f6e6000830152602082019050919050565b60006109b7604c83610d90565b91507f4e6f2070756564657320736572207265676973747261646f20636f6d6f20766f60008301527f74616e74652c206c61206e6163696f6e616c696461642072657175657269646160208301527f206573204d65786963616e6100000000000000000000000000000000000000006040830152606082019050919050565b6000610a43603d83610d90565b91507f4e6f2070756564657320736572207265676973747261646f20636f6d6f20636160008301527f6e64696461746f2c206c612065646164206d696e696d612065732033350000006020830152604082019050919050565b6000610aa9601f83610d90565b91507f4e6f207265676973747261646f206f206e6f2070756564657320766f746172006000830152602082019050919050565b6000610ae9602383610d90565b91507f4e6f2070756564657320766f7461722c2065726573206d656e6f72206465206560008301527f64616400000000000000000000000000000000000000000000000000000000006020830152604082019050919050565b6000610b4f604e83610d90565b91507f4e6f2070756564657320736572207265676973747261646f20636f6d6f20636160008301527f6e64696461746f2c206c61206e6163696f6e616c69646164207265717565726960208301527f6461206573204d65786963616e610000000000000000000000000000000000006040830152606082019050919050565b6000610bdb600883610da1565b91507f4d65786963616e610000000000000000000000000000000000000000000000006000830152600882019050919050565b610c1781610e22565b82525050565b6000610c298284610939565b915081905092915050565b6000610c3f82610bce565b9150819050919050565b60006020820190508181036000830152610c628161096a565b9050919050565b60006020820190508181036000830152610c82816109aa565b9050919050565b60006020820190508181036000830152610ca281610a36565b9050919050565b60006020820190508181036000830152610cc281610a9c565b9050919050565b60006020820190508181036000830152610ce281610adc565b9050919050565b60006020820190508181036000830152610d0281610b42565b9050919050565b6000602082019050610d1e6000830184610c0e565b92915050565b6000604051905081810181811067ffffffffffffffff82111715610d4b57610d4a610f04565b5b8060405250919050565b600067ffffffffffffffff821115610d7057610d6f610f04565b5b601f19601f8301169050602081019050919050565b600081519050919050565b600082825260208201905092915050565b600081905092915050565b6000610db782610e22565b9150610dc283610e22565b92508263ffffffff03821115610ddb57610dda610ea6565b5b828201905092915050565b6000610df182610df8565b9050919050565b600073ffffffffffffffffffffffffffffffffffffffff82169050919050565b6000819050919050565b600063ffffffff82169050919050565b82818337600083830152505050565b60005b83811015610e5f578082015181840152602081019050610e44565b83811115610e6e576000848401525b50505050565b60006002820490506001821680610e8c57607f821691505b60208210811415610ea057610e9f610ed5565b5b50919050565b7f4e487b7100000000000000000000000000000000000000000000000000000000600052601160045260246000fd5b7f4e487b7100000000000000000000000000000000000000000000000000000000600052602260045260246000fd5b7f4e487b7100000000000000000000000000000000000000000000000000000000600052604160045260246000fd5b610f3c81610de6565b8114610f4757600080fd5b50565b610f5381610e18565b8114610f5e57600080fd5b5056fea2646970667358221220e21fa00563410bd7d175f5d6242f0a0bbbd862cfec849e0d73a86ffacb9d9b8164736f6c63430008000033",
			"opcodes": "PUSH1 0x80 PUSH1 0x40 MSTORE CALLVALUE DUP1 ISZERO PUSH2 0x10 JUMPI PUSH1 0x0 DUP1 REVERT JUMPDEST POP PUSH2 0xF97 DUP1 PUSH2 0x20 PUSH1 0x0 CODECOPY PUSH1 0x0 RETURN INVALID PUSH1 0x80 PUSH1 0x40 MSTORE CALLVALUE DUP1 ISZERO PUSH2 0x10 JUMPI PUSH1 0x0 DUP1 REVERT JUMPDEST POP PUSH1 0x4 CALLDATASIZE LT PUSH2 0x57 JUMPI PUSH1 0x0 CALLDATALOAD PUSH1 0xE0 SHR DUP1 PUSH4 0x385A1E3E EQ PUSH2 0x5C JUMPI DUP1 PUSH4 0x3B3A170D EQ PUSH2 0x78 JUMPI DUP1 PUSH4 0x801B33D5 EQ PUSH2 0x96 JUMPI DUP1 PUSH4 0x9332D2E6 EQ PUSH2 0xA0 JUMPI DUP1 PUSH4 0xD696612C EQ PUSH2 0xBC JUMPI JUMPDEST PUSH1 0x0 DUP1 REVERT JUMPDEST PUSH2 0x76 PUSH1 0x4 DUP1 CALLDATASIZE SUB DUP2 ADD SWAP1 PUSH2 0x71 SWAP2 SWAP1 PUSH2 0x827 JUMP JUMPDEST PUSH2 0xD8 JUMP JUMPDEST STOP JUMPDEST PUSH2 0x80 PUSH2 0x2B9 JUMP JUMPDEST PUSH1 0x40 MLOAD PUSH2 0x8D SWAP2 SWAP1 PUSH2 0xD09 JUMP JUMPDEST PUSH1 0x40 MLOAD DUP1 SWAP2 SUB SWAP1 RETURN JUMPDEST PUSH2 0x9E PUSH2 0x2D2 JUMP JUMPDEST STOP JUMPDEST PUSH2 0xBA PUSH1 0x4 DUP1 CALLDATASIZE SUB DUP2 ADD SWAP1 PUSH2 0xB5 SWAP2 SWAP1 PUSH2 0x7FE JUMP JUMPDEST PUSH2 0x2D4 JUMP JUMPDEST STOP JUMPDEST PUSH2 0xD6 PUSH1 0x4 DUP1 CALLDATASIZE SUB DUP2 ADD SWAP1 PUSH2 0xD1 SWAP2 SWAP1 PUSH2 0x8A6 JUMP JUMPDEST PUSH2 0x555 JUMP JUMPDEST STOP JUMPDEST PUSH1 0x40 MLOAD PUSH1 0x20 ADD PUSH2 0xE7 SWAP1 PUSH2 0xC34 JUMP JUMPDEST PUSH1 0x40 MLOAD PUSH1 0x20 DUP2 DUP4 SUB SUB DUP2 MSTORE SWAP1 PUSH1 0x40 MSTORE DUP1 MLOAD SWAP1 PUSH1 0x20 ADD KECCAK256 DUP3 PUSH1 0x40 MLOAD PUSH1 0x20 ADD PUSH2 0x10E SWAP2 SWAP1 PUSH2 0xC1D JUMP JUMPDEST PUSH1 0x40 MLOAD PUSH1 0x20 DUP2 DUP4 SUB SUB DUP2 MSTORE SWAP1 PUSH1 0x40 MSTORE DUP1 MLOAD SWAP1 PUSH1 0x20 ADD KECCAK256 EQ PUSH2 0x164 JUMPI PUSH1 0x40 MLOAD PUSH32 0x8C379A000000000000000000000000000000000000000000000000000000000 DUP2 MSTORE PUSH1 0x4 ADD PUSH2 0x15B SWAP1 PUSH2 0xC69 JUMP JUMPDEST PUSH1 0x40 MLOAD DUP1 SWAP2 SUB SWAP1 REVERT JUMPDEST PUSH1 0x12 DUP2 LT ISZERO PUSH2 0x1A8 JUMPI PUSH1 0x40 MLOAD PUSH32 0x8C379A000000000000000000000000000000000000000000000000000000000 DUP2 MSTORE PUSH1 0x4 ADD PUSH2 0x19F SWAP1 PUSH2 0xCC9 JUMP JUMPDEST PUSH1 0x40 MLOAD DUP1 SWAP2 SUB SWAP1 REVERT JUMPDEST PUSH1 0x1 DUP1 PUSH1 0x0 CALLER PUSH20 0xFFFFFFFFFFFFFFFFFFFFFFFFFFFFFFFFFFFFFFFF AND PUSH20 0xFFFFFFFFFFFFFFFFFFFFFFFFFFFFFFFFFFFFFFFF AND DUP2 MSTORE PUSH1 0x20 ADD SWAP1 DUP2 MSTORE PUSH1 0x20 ADD PUSH1 0x0 KECCAK256 PUSH1 0x1 ADD PUSH1 0x1 PUSH2 0x100 EXP DUP2 SLOAD DUP2 PUSH1 0xFF MUL NOT AND SWAP1 DUP4 ISZERO ISZERO MUL OR SWAP1 SSTORE POP PUSH1 0x0 PUSH1 0x1 PUSH1 0x0 CALLER PUSH20 0xFFFFFFFFFFFFFFFFFFFFFFFFFFFFFFFFFFFFFFFF AND PUSH20 0xFFFFFFFFFFFFFFFFFFFFFFFFFFFFFFFFFFFFFFFF AND DUP2 MSTORE PUSH1 0x20 ADD SWAP1 DUP2 MSTORE PUSH1 0x20 ADD PUSH1 0x0 KECCAK256 PUSH1 0x1 ADD PUSH1 0x0 PUSH2 0x100 EXP DUP2 SLOAD DUP2 PUSH1 0xFF MUL NOT AND SWAP1 DUP4 ISZERO ISZERO MUL OR SWAP1 SSTORE POP DUP3 PUSH1 0x1 PUSH1 0x0 CALLER PUSH20 0xFFFFFFFFFFFFFFFFFFFFFFFFFFFFFFFFFFFFFFFF AND PUSH20 0xFFFFFFFFFFFFFFFFFFFFFFFFFFFFFFFFFFFFFFFF AND DUP2 MSTORE PUSH1 0x20 ADD SWAP1 DUP2 MSTORE PUSH1 0x20 ADD PUSH1 0x0 KECCAK256 PUSH1 0x0 ADD SWAP1 DUP1 MLOAD SWAP1 PUSH1 0x20 ADD SWAP1 PUSH2 0x2B3 SWAP3 SWAP2 SWAP1 PUSH2 0x6C9 JUMP JUMPDEST POP POP POP POP JUMP JUMPDEST PUSH1 0x0 DUP1 PUSH1 0x0 SWAP1 SLOAD SWAP1 PUSH2 0x100 EXP SWAP1 DIV PUSH4 0xFFFFFFFF AND SWAP1 POP SWAP1 JUMP JUMPDEST JUMP JUMPDEST PUSH1 0x1 ISZERO ISZERO PUSH1 0x1 PUSH1 0x0 CALLER PUSH20 0xFFFFFFFFFFFFFFFFFFFFFFFFFFFFFFFFFFFFFFFF AND PUSH20 0xFFFFFFFFFFFFFFFFFFFFFFFFFFFFFFFFFFFFFFFF AND DUP2 MSTORE PUSH1 0x20 ADD SWAP1 DUP2 MSTORE PUSH1 0x20 ADD PUSH1 0x0 KECCAK256 PUSH1 0x1 ADD PUSH1 0x1 SWAP1 SLOAD SWAP1 PUSH2 0x100 EXP SWAP1 DIV PUSH1 0xFF AND ISZERO ISZERO EQ PUSH2 0x36A JUMPI PUSH1 0x40 MLOAD PUSH32 0x8C379A000000000000000000000000000000000000000000000000000000000 DUP2 MSTORE PUSH1 0x4 ADD PUSH2 0x361 SWAP1 PUSH2 0xCA9 JUMP JUMPDEST PUSH1 0x40 MLOAD DUP1 SWAP2 SUB SWAP1 REVERT JUMPDEST PUSH1 0x1 PUSH1 0x0 CALLER PUSH20 0xFFFFFFFFFFFFFFFFFFFFFFFFFFFFFFFFFFFFFFFF AND PUSH20 0xFFFFFFFFFFFFFFFFFFFFFFFFFFFFFFFFFFFFFFFF AND DUP2 MSTORE PUSH1 0x20 ADD SWAP1 DUP2 MSTORE PUSH1 0x20 ADD PUSH1 0x0 KECCAK256 PUSH1 0x1 ADD PUSH1 0x0 SWAP1 SLOAD SWAP1 PUSH2 0x100 EXP SWAP1 DIV PUSH1 0xFF AND ISZERO PUSH2 0x3FA JUMPI PUSH1 0x40 MLOAD PUSH32 0x8C379A000000000000000000000000000000000000000000000000000000000 DUP2 MSTORE PUSH1 0x4 ADD PUSH2 0x3F1 SWAP1 PUSH2 0xC49 JUMP JUMPDEST PUSH1 0x40 MLOAD DUP1 SWAP2 SUB SWAP1 REVERT JUMPDEST PUSH1 0x1 DUP1 PUSH1 0x0 CALLER PUSH20 0xFFFFFFFFFFFFFFFFFFFFFFFFFFFFFFFFFFFFFFFF AND PUSH20 0xFFFFFFFFFFFFFFFFFFFFFFFFFFFFFFFFFFFFFFFF AND DUP2 MSTORE PUSH1 0x20 ADD SWAP1 DUP2 MSTORE PUSH1 0x20 ADD PUSH1 0x0 KECCAK256 PUSH1 0x1 ADD PUSH1 0x0 PUSH2 0x100 EXP DUP2 SLOAD DUP2 PUSH1 0xFF MUL NOT AND SWAP1 DUP4 ISZERO ISZERO MUL OR SWAP1 SSTORE POP PUSH1 0x1 PUSH1 0x2 PUSH1 0x0 DUP4 PUSH20 0xFFFFFFFFFFFFFFFFFFFFFFFFFFFFFFFFFFFFFFFF AND PUSH20 0xFFFFFFFFFFFFFFFFFFFFFFFFFFFFFFFFFFFFFFFF AND DUP2 MSTORE PUSH1 0x20 ADD SWAP1 DUP2 MSTORE PUSH1 0x20 ADD PUSH1 0x0 KECCAK256 PUSH1 0x2 ADD PUSH1 0x0 SWAP1 SLOAD SWAP1 PUSH2 0x100 EXP SWAP1 DIV PUSH4 0xFFFFFFFF AND PUSH2 0x4B3 SWAP2 SWAP1 PUSH2 0xDAC JUMP JUMPDEST PUSH1 0x2 PUSH1 0x0 DUP4 PUSH20 0xFFFFFFFFFFFFFFFFFFFFFFFFFFFFFFFFFFFFFFFF AND PUSH20 0xFFFFFFFFFFFFFFFFFFFFFFFFFFFFFFFFFFFFFFFF AND DUP2 MSTORE PUSH1 0x20 ADD SWAP1 DUP2 MSTORE PUSH1 0x20 ADD PUSH1 0x0 KECCAK256 PUSH1 0x2 ADD PUSH1 0x0 PUSH2 0x100 EXP DUP2 SLOAD DUP2 PUSH4 0xFFFFFFFF MUL NOT AND SWAP1 DUP4 PUSH4 0xFFFFFFFF AND MUL OR SWAP1 SSTORE POP PUSH1 0x1 PUSH1 0x0 DUP1 DUP3 DUP3 DUP3 SWAP1 SLOAD SWAP1 PUSH2 0x100 EXP SWAP1 DIV PUSH4 0xFFFFFFFF AND PUSH2 0x534 SWAP2 SWAP1 PUSH2 0xDAC JUMP JUMPDEST SWAP3 POP PUSH2 0x100 EXP DUP2 SLOAD DUP2 PUSH4 0xFFFFFFFF MUL NOT AND SWAP1 DUP4 PUSH4 0xFFFFFFFF AND MUL OR SWAP1 SSTORE POP POP JUMP JUMPDEST PUSH1 0x40 MLOAD PUSH1 0x20 ADD PUSH2 0x564 SWAP1 PUSH2 0xC34 JUMP JUMPDEST PUSH1 0x40 MLOAD PUSH1 0x20 DUP2 DUP4 SUB SUB DUP2 MSTORE SWAP1 PUSH1 0x40 MSTORE DUP1 MLOAD SWAP1 PUSH1 0x20 ADD KECCAK256 DUP4 PUSH1 0x40 MLOAD PUSH1 0x20 ADD PUSH2 0x58B SWAP2 SWAP1 PUSH2 0xC1D JUMP JUMPDEST PUSH1 0x40 MLOAD PUSH1 0x20 DUP2 DUP4 SUB SUB DUP2 MSTORE SWAP1 PUSH1 0x40 MSTORE DUP1 MLOAD SWAP1 PUSH1 0x20 ADD KECCAK256 EQ PUSH2 0x5E1 JUMPI PUSH1 0x40 MLOAD PUSH32 0x8C379A000000000000000000000000000000000000000000000000000000000 DUP2 MSTORE PUSH1 0x4 ADD PUSH2 0x5D8 SWAP1 PUSH2 0xCE9 JUMP JUMPDEST PUSH1 0x40 MLOAD DUP1 SWAP2 SUB SWAP1 REVERT JUMPDEST PUSH1 0x23 DUP3 LT ISZERO PUSH2 0x625 JUMPI PUSH1 0x40 MLOAD PUSH32 0x8C379A000000000000000000000000000000000000000000000000000000000 DUP2 MSTORE PUSH1 0x4 ADD PUSH2 0x61C SWAP1 PUSH2 0xC89 JUMP JUMPDEST PUSH1 0x40 MLOAD DUP1 SWAP2 SUB SWAP1 REVERT JUMPDEST DUP1 PUSH1 0x2 PUSH1 0x0 CALLER PUSH20 0xFFFFFFFFFFFFFFFFFFFFFFFFFFFFFFFFFFFFFFFF AND PUSH20 0xFFFFFFFFFFFFFFFFFFFFFFFFFFFFFFFFFFFFFFFF AND DUP2 MSTORE PUSH1 0x20 ADD SWAP1 DUP2 MSTORE PUSH1 0x20 ADD PUSH1 0x0 KECCAK256 PUSH1 0x0 ADD DUP2 SWAP1 SSTORE POP DUP4 PUSH1 0x2 PUSH1 0x0 CALLER PUSH20 0xFFFFFFFFFFFFFFFFFFFFFFFFFFFFFFFFFFFFFFFF AND PUSH20 0xFFFFFFFFFFFFFFFFFFFFFFFFFFFFFFFFFFFFFFFF AND DUP2 MSTORE PUSH1 0x20 ADD SWAP1 DUP2 MSTORE PUSH1 0x20 ADD PUSH1 0x0 KECCAK256 PUSH1 0x1 ADD SWAP1 DUP1 MLOAD SWAP1 PUSH1 0x20 ADD SWAP1 PUSH2 0x6C2 SWAP3 SWAP2 SWAP1 PUSH2 0x6C9 JUMP JUMPDEST POP POP POP POP POP JUMP JUMPDEST DUP3 DUP1 SLOAD PUSH2 0x6D5 SWAP1 PUSH2 0xE74 JUMP JUMPDEST SWAP1 PUSH1 0x0 MSTORE PUSH1 0x20 PUSH1 0x0 KECCAK256 SWAP1 PUSH1 0x1F ADD PUSH1 0x20 SWAP1 DIV DUP2 ADD SWAP3 DUP3 PUSH2 0x6F7 JUMPI PUSH1 0x0 DUP6 SSTORE PUSH2 0x73E JUMP JUMPDEST DUP3 PUSH1 0x1F LT PUSH2 0x710 JUMPI DUP1 MLOAD PUSH1 0xFF NOT AND DUP4 DUP1 ADD OR DUP6 SSTORE PUSH2 0x73E JUMP JUMPDEST DUP3 DUP1 ADD PUSH1 0x1 ADD DUP6 SSTORE DUP3 ISZERO PUSH2 0x73E JUMPI SWAP2 DUP3 ADD JUMPDEST DUP3 DUP2 GT ISZERO PUSH2 0x73D JUMPI DUP3 MLOAD DUP3 SSTORE SWAP2 PUSH1 0x20 ADD SWAP2 SWAP1 PUSH1 0x1 ADD SWAP1 PUSH2 0x722 JUMP JUMPDEST JUMPDEST POP SWAP1 POP PUSH2 0x74B SWAP2 SWAP1 PUSH2 0x74F JUMP JUMPDEST POP SWAP1 JUMP JUMPDEST JUMPDEST DUP1 DUP3 GT ISZERO PUSH2 0x768 JUMPI PUSH1 0x0 DUP2 PUSH1 0x0 SWAP1 SSTORE POP PUSH1 0x1 ADD PUSH2 0x750 JUMP JUMPDEST POP SWAP1 JUMP JUMPDEST PUSH1 0x0 PUSH2 0x77F PUSH2 0x77A DUP5 PUSH2 0xD55 JUMP JUMPDEST PUSH2 0xD24 JUMP JUMPDEST SWAP1 POP DUP3 DUP2 MSTORE PUSH1 0x20 DUP2 ADD DUP5 DUP5 DUP5 ADD GT ISZERO PUSH2 0x797 JUMPI PUSH1 0x0 DUP1 REVERT JUMPDEST PUSH2 0x7A2 DUP5 DUP3 DUP6 PUSH2 0xE32 JUMP JUMPDEST POP SWAP4 SWAP3 POP POP POP JUMP JUMPDEST PUSH1 0x0 DUP2 CALLDATALOAD SWAP1 POP PUSH2 0x7B9 DUP2 PUSH2 0xF33 JUMP JUMPDEST SWAP3 SWAP2 POP POP JUMP JUMPDEST PUSH1 0x0 DUP3 PUSH1 0x1F DUP4 ADD SLT PUSH2 0x7D0 JUMPI PUSH1 0x0 DUP1 REVERT JUMPDEST DUP2 CALLDATALOAD PUSH2 0x7E0 DUP5 DUP3 PUSH1 0x20 DUP7 ADD PUSH2 0x76C JUMP JUMPDEST SWAP2 POP POP SWAP3 SWAP2 POP POP JUMP JUMPDEST PUSH1 0x0 DUP2 CALLDATALOAD SWAP1 POP PUSH2 0x7F8 DUP2 PUSH2 0xF4A JUMP JUMPDEST SWAP3 SWAP2 POP POP JUMP JUMPDEST PUSH1 0x0 PUSH1 0x20 DUP3 DUP5 SUB SLT ISZERO PUSH2 0x810 JUMPI PUSH1 0x0 DUP1 REVERT JUMPDEST PUSH1 0x0 PUSH2 0x81E DUP5 DUP3 DUP6 ADD PUSH2 0x7AA JUMP JUMPDEST SWAP2 POP POP SWAP3 SWAP2 POP POP JUMP JUMPDEST PUSH1 0x0 DUP1 PUSH1 0x0 PUSH1 0x60 DUP5 DUP7 SUB SLT ISZERO PUSH2 0x83C JUMPI PUSH1 0x0 DUP1 REVERT JUMPDEST PUSH1 0x0 DUP5 ADD CALLDATALOAD PUSH8 0xFFFFFFFFFFFFFFFF DUP2 GT ISZERO PUSH2 0x856 JUMPI PUSH1 0x0 DUP1 REVERT JUMPDEST PUSH2 0x862 DUP7 DUP3 DUP8 ADD PUSH2 0x7BF JUMP JUMPDEST SWAP4 POP POP PUSH1 0x20 DUP5 ADD CALLDATALOAD PUSH8 0xFFFFFFFFFFFFFFFF DUP2 GT ISZERO PUSH2 0x87F JUMPI PUSH1 0x0 DUP1 REVERT JUMPDEST PUSH2 0x88B DUP7 DUP3 DUP8 ADD PUSH2 0x7BF JUMP JUMPDEST SWAP3 POP POP PUSH1 0x40 PUSH2 0x89C DUP7 DUP3 DUP8 ADD PUSH2 0x7E9 JUMP JUMPDEST SWAP2 POP POP SWAP3 POP SWAP3 POP SWAP3 JUMP JUMPDEST PUSH1 0x0 DUP1 PUSH1 0x0 DUP1 PUSH1 0x80 DUP6 DUP8 SUB SLT ISZERO PUSH2 0x8BC JUMPI PUSH1 0x0 DUP1 REVERT JUMPDEST PUSH1 0x0 DUP6 ADD CALLDATALOAD PUSH8 0xFFFFFFFFFFFFFFFF DUP2 GT ISZERO PUSH2 0x8D6 JUMPI PUSH1 0x0 DUP1 REVERT JUMPDEST PUSH2 0x8E2 DUP8 DUP3 DUP9 ADD PUSH2 0x7BF JUMP JUMPDEST SWAP5 POP POP PUSH1 0x20 DUP6 ADD CALLDATALOAD PUSH8 0xFFFFFFFFFFFFFFFF DUP2 GT ISZERO PUSH2 0x8FF JUMPI PUSH1 0x0 DUP1 REVERT JUMPDEST PUSH2 0x90B DUP8 DUP3 DUP9 ADD PUSH2 0x7BF JUMP JUMPDEST SWAP4 POP POP PUSH1 0x40 PUSH2 0x91C DUP8 DUP3 DUP9 ADD PUSH2 0x7E9 JUMP JUMPDEST SWAP3 POP POP PUSH1 0x60 PUSH2 0x92D DUP8 DUP3 DUP9 ADD PUSH2 0x7E9 JUMP JUMPDEST SWAP2 POP POP SWAP3 SWAP6 SWAP2 SWAP5 POP SWAP3 POP JUMP JUMPDEST PUSH1 0x0 PUSH2 0x944 DUP3 PUSH2 0xD85 JUMP JUMPDEST PUSH2 0x94E DUP2 DUP6 PUSH2 0xDA1 JUMP JUMPDEST SWAP4 POP PUSH2 0x95E DUP2 DUP6 PUSH1 0x20 DUP7 ADD PUSH2 0xE41 JUMP JUMPDEST DUP1 DUP5 ADD SWAP2 POP POP SWAP3 SWAP2 POP POP JUMP JUMPDEST PUSH1 0x0 PUSH2 0x977 PUSH1 0x20 DUP4 PUSH2 0xD90 JUMP JUMPDEST SWAP2 POP PUSH32 0x4E6F2070756564657320766F746172202B20646520756E61206F636173696F6E PUSH1 0x0 DUP4 ADD MSTORE PUSH1 0x20 DUP3 ADD SWAP1 POP SWAP2 SWAP1 POP JUMP JUMPDEST PUSH1 0x0 PUSH2 0x9B7 PUSH1 0x4C DUP4 PUSH2 0xD90 JUMP JUMPDEST SWAP2 POP PUSH32 0x4E6F2070756564657320736572207265676973747261646F20636F6D6F20766F PUSH1 0x0 DUP4 ADD MSTORE PUSH32 0x74616E74652C206C61206E6163696F6E616C6964616420726571756572696461 PUSH1 0x20 DUP4 ADD MSTORE PUSH32 0x206573204D65786963616E610000000000000000000000000000000000000000 PUSH1 0x40 DUP4 ADD MSTORE PUSH1 0x60 DUP3 ADD SWAP1 POP SWAP2 SWAP1 POP JUMP JUMPDEST PUSH1 0x0 PUSH2 0xA43 PUSH1 0x3D DUP4 PUSH2 0xD90 JUMP JUMPDEST SWAP2 POP PUSH32 0x4E6F2070756564657320736572207265676973747261646F20636F6D6F206361 PUSH1 0x0 DUP4 ADD MSTORE PUSH32 0x6E64696461746F2C206C612065646164206D696E696D61206573203335000000 PUSH1 0x20 DUP4 ADD MSTORE PUSH1 0x40 DUP3 ADD SWAP1 POP SWAP2 SWAP1 POP JUMP JUMPDEST PUSH1 0x0 PUSH2 0xAA9 PUSH1 0x1F DUP4 PUSH2 0xD90 JUMP JUMPDEST SWAP2 POP PUSH32 0x4E6F207265676973747261646F206F206E6F2070756564657320766F74617200 PUSH1 0x0 DUP4 ADD MSTORE PUSH1 0x20 DUP3 ADD SWAP1 POP SWAP2 SWAP1 POP JUMP JUMPDEST PUSH1 0x0 PUSH2 0xAE9 PUSH1 0x23 DUP4 PUSH2 0xD90 JUMP JUMPDEST SWAP2 POP PUSH32 0x4E6F2070756564657320766F7461722C2065726573206D656E6F722064652065 PUSH1 0x0 DUP4 ADD MSTORE PUSH32 0x6461640000000000000000000000000000000000000000000000000000000000 PUSH1 0x20 DUP4 ADD MSTORE PUSH1 0x40 DUP3 ADD SWAP1 POP SWAP2 SWAP1 POP JUMP JUMPDEST PUSH1 0x0 PUSH2 0xB4F PUSH1 0x4E DUP4 PUSH2 0xD90 JUMP JUMPDEST SWAP2 POP PUSH32 0x4E6F2070756564657320736572207265676973747261646F20636F6D6F206361 PUSH1 0x0 DUP4 ADD MSTORE PUSH32 0x6E64696461746F2C206C61206E6163696F6E616C696461642072657175657269 PUSH1 0x20 DUP4 ADD MSTORE PUSH32 0x6461206573204D65786963616E61000000000000000000000000000000000000 PUSH1 0x40 DUP4 ADD MSTORE PUSH1 0x60 DUP3 ADD SWAP1 POP SWAP2 SWAP1 POP JUMP JUMPDEST PUSH1 0x0 PUSH2 0xBDB PUSH1 0x8 DUP4 PUSH2 0xDA1 JUMP JUMPDEST SWAP2 POP PUSH32 0x4D65786963616E61000000000000000000000000000000000000000000000000 PUSH1 0x0 DUP4 ADD MSTORE PUSH1 0x8 DUP3 ADD SWAP1 POP SWAP2 SWAP1 POP JUMP JUMPDEST PUSH2 0xC17 DUP2 PUSH2 0xE22 JUMP JUMPDEST DUP3 MSTORE POP POP JUMP JUMPDEST PUSH1 0x0 PUSH2 0xC29 DUP3 DUP5 PUSH2 0x939 JUMP JUMPDEST SWAP2 POP DUP2 SWAP1 POP SWAP3 SWAP2 POP POP JUMP JUMPDEST PUSH1 0x0 PUSH2 0xC3F DUP3 PUSH2 0xBCE JUMP JUMPDEST SWAP2 POP DUP2 SWAP1 POP SWAP2 SWAP1 POP JUMP JUMPDEST PUSH1 0x0 PUSH1 0x20 DUP3 ADD SWAP1 POP DUP2 DUP2 SUB PUSH1 0x0 DUP4 ADD MSTORE PUSH2 0xC62 DUP2 PUSH2 0x96A JUMP JUMPDEST SWAP1 POP SWAP2 SWAP1 POP JUMP JUMPDEST PUSH1 0x0 PUSH1 0x20 DUP3 ADD SWAP1 POP DUP2 DUP2 SUB PUSH1 0x0 DUP4 ADD MSTORE PUSH2 0xC82 DUP2 PUSH2 0x9AA JUMP JUMPDEST SWAP1 POP SWAP2 SWAP1 POP JUMP JUMPDEST PUSH1 0x0 PUSH1 0x20 DUP3 ADD SWAP1 POP DUP2 DUP2 SUB PUSH1 0x0 DUP4 ADD MSTORE PUSH2 0xCA2 DUP2 PUSH2 0xA36 JUMP JUMPDEST SWAP1 POP SWAP2 SWAP1 POP JUMP JUMPDEST PUSH1 0x0 PUSH1 0x20 DUP3 ADD SWAP1 POP DUP2 DUP2 SUB PUSH1 0x0 DUP4 ADD MSTORE PUSH2 0xCC2 DUP2 PUSH2 0xA9C JUMP JUMPDEST SWAP1 POP SWAP2 SWAP1 POP JUMP JUMPDEST PUSH1 0x0 PUSH1 0x20 DUP3 ADD SWAP1 POP DUP2 DUP2 SUB PUSH1 0x0 DUP4 ADD MSTORE PUSH2 0xCE2 DUP2 PUSH2 0xADC JUMP JUMPDEST SWAP1 POP SWAP2 SWAP1 POP JUMP JUMPDEST PUSH1 0x0 PUSH1 0x20 DUP3 ADD SWAP1 POP DUP2 DUP2 SUB PUSH1 0x0 DUP4 ADD MSTORE PUSH2 0xD02 DUP2 PUSH2 0xB42 JUMP JUMPDEST SWAP1 POP SWAP2 SWAP1 POP JUMP JUMPDEST PUSH1 0x0 PUSH1 0x20 DUP3 ADD SWAP1 POP PUSH2 0xD1E PUSH1 0x0 DUP4 ADD DUP5 PUSH2 0xC0E JUMP JUMPDEST SWAP3 SWAP2 POP POP JUMP JUMPDEST PUSH1 0x0 PUSH1 0x40 MLOAD SWAP1 POP DUP2 DUP2 ADD DUP2 DUP2 LT PUSH8 0xFFFFFFFFFFFFFFFF DUP3 GT OR ISZERO PUSH2 0xD4B JUMPI PUSH2 0xD4A PUSH2 0xF04 JUMP JUMPDEST JUMPDEST DUP1 PUSH1 0x40 MSTORE POP SWAP2 SWAP1 POP JUMP JUMPDEST PUSH1 0x0 PUSH8 0xFFFFFFFFFFFFFFFF DUP3 GT ISZERO PUSH2 0xD70 JUMPI PUSH2 0xD6F PUSH2 0xF04 JUMP JUMPDEST JUMPDEST PUSH1 0x1F NOT PUSH1 0x1F DUP4 ADD AND SWAP1 POP PUSH1 0x20 DUP2 ADD SWAP1 POP SWAP2 SWAP1 POP JUMP JUMPDEST PUSH1 0x0 DUP2 MLOAD SWAP1 POP SWAP2 SWAP1 POP JUMP JUMPDEST PUSH1 0x0 DUP3 DUP3 MSTORE PUSH1 0x20 DUP3 ADD SWAP1 POP SWAP3 SWAP2 POP POP JUMP JUMPDEST PUSH1 0x0 DUP2 SWAP1 POP SWAP3 SWAP2 POP POP JUMP JUMPDEST PUSH1 0x0 PUSH2 0xDB7 DUP3 PUSH2 0xE22 JUMP JUMPDEST SWAP2 POP PUSH2 0xDC2 DUP4 PUSH2 0xE22 JUMP JUMPDEST SWAP3 POP DUP3 PUSH4 0xFFFFFFFF SUB DUP3 GT ISZERO PUSH2 0xDDB JUMPI PUSH2 0xDDA PUSH2 0xEA6 JUMP JUMPDEST JUMPDEST DUP3 DUP3 ADD SWAP1 POP SWAP3 SWAP2 POP POP JUMP JUMPDEST PUSH1 0x0 PUSH2 0xDF1 DUP3 PUSH2 0xDF8 JUMP JUMPDEST SWAP1 POP SWAP2 SWAP1 POP JUMP JUMPDEST PUSH1 0x0 PUSH20 0xFFFFFFFFFFFFFFFFFFFFFFFFFFFFFFFFFFFFFFFF DUP3 AND SWAP1 POP SWAP2 SWAP1 POP JUMP JUMPDEST PUSH1 0x0 DUP2 SWAP1 POP SWAP2 SWAP1 POP JUMP JUMPDEST PUSH1 0x0 PUSH4 0xFFFFFFFF DUP3 AND SWAP1 POP SWAP2 SWAP1 POP JUMP JUMPDEST DUP3 DUP2 DUP4 CALLDATACOPY PUSH1 0x0 DUP4 DUP4 ADD MSTORE POP POP POP JUMP JUMPDEST PUSH1 0x0 JUMPDEST DUP4 DUP2 LT ISZERO PUSH2 0xE5F JUMPI DUP1 DUP3 ADD MLOAD DUP2 DUP5 ADD MSTORE PUSH1 0x20 DUP2 ADD SWAP1 POP PUSH2 0xE44 JUMP JUMPDEST DUP4 DUP2 GT ISZERO PUSH2 0xE6E JUMPI PUSH1 0x0 DUP5 DUP5 ADD MSTORE JUMPDEST POP POP POP POP JUMP JUMPDEST PUSH1 0x0 PUSH1 0x2 DUP3 DIV SWAP1 POP PUSH1 0x1 DUP3 AND DUP1 PUSH2 0xE8C JUMPI PUSH1 0x7F DUP3 AND SWAP2 POP JUMPDEST PUSH1 0x20 DUP3 LT DUP2 EQ ISZERO PUSH2 0xEA0 JUMPI PUSH2 0xE9F PUSH2 0xED5 JUMP JUMPDEST JUMPDEST POP SWAP2 SWAP1 POP JUMP JUMPDEST PUSH32 0x4E487B7100000000000000000000000000000000000000000000000000000000 PUSH1 0x0 MSTORE PUSH1 0x11 PUSH1 0x4 MSTORE PUSH1 0x24 PUSH1 0x0 REVERT JUMPDEST PUSH32 0x4E487B7100000000000000000000000000000000000000000000000000000000 PUSH1 0x0 MSTORE PUSH1 0x22 PUSH1 0x4 MSTORE PUSH1 0x24 PUSH1 0x0 REVERT JUMPDEST PUSH32 0x4E487B7100000000000000000000000000000000000000000000000000000000 PUSH1 0x0 MSTORE PUSH1 0x41 PUSH1 0x4 MSTORE PUSH1 0x24 PUSH1 0x0 REVERT JUMPDEST PUSH2 0xF3C DUP2 PUSH2 0xDE6 JUMP JUMPDEST DUP2 EQ PUSH2 0xF47 JUMPI PUSH1 0x0 DUP1 REVERT JUMPDEST POP JUMP JUMPDEST PUSH2 0xF53 DUP2 PUSH2 0xE18 JUMP JUMPDEST DUP2 EQ PUSH2 0xF5E JUMPI PUSH1 0x0 DUP1 REVERT JUMPDEST POP JUMP INVALID LOG2 PUSH5 0x6970667358 0x22 SLT KECCAK256 0xE2 0x1F LOG0 SDIV PUSH4 0x410BD7D1 PUSH22 0xF5D6242F0A0BBBD862CFEC849E0D73A86FFACB9D9B81 PUSH5 0x736F6C6343 STOP ADDMOD STOP STOP CALLER "
		},
		"gasEstimates": {
			"creation": {
				"codeDepositCost": "798200",
				"executionCost": "831",
				"totalCost": "799031"
			},
			"external": {
				"obtenerGanador()": "166",
				"obtenerTotalDeVotos()": "1179",
				"registrarCandidatos(string,string,uint256,uint256)": "infinite",
				"registrarVotante(string,string,uint256)": "infinite",
				"votar(address)": "infinite"
			}
		},
		"methodIdentifiers": {
			"obtenerGanador()": "801b33d5",
			"obtenerTotalDeVotos()": "3b3a170d",
			"registrarCandidatos(string,string,uint256,uint256)": "d696612c",
			"registrarVotante(string,string,uint256)": "385a1e3e",
			"votar(address)": "9332d2e6"
		}
	},
	"abi": [
		{
			"inputs": [],
			"name": "obtenerGanador",
			"outputs": [],
			"stateMutability": "nonpayable",
			"type": "function"
		},
		{
			"inputs": [],
			"name": "obtenerTotalDeVotos",
			"outputs": [
				{
					"internalType": "uint32",
					"name": "_totalVotos",
					"type": "uint32"
				}
			],
			"stateMutability": "nonpayable",
			"type": "function"
		},
		{
			"inputs": [
				{
					"internalType": "string",
					"name": "nombre",
					"type": "string"
				},
				{
					"internalType": "string",
					"name": "nacionalidad",
					"type": "string"
				},
				{
					"internalType": "uint256",
					"name": "edad",
					"type": "uint256"
				},
				{
					"internalType": "uint256",
					"name": "id",
					"type": "uint256"
				}
			],
			"name": "registrarCandidatos",
			"outputs": [],
			"stateMutability": "nonpayable",
			"type": "function"
		},
		{
			"inputs": [
				{
					"internalType": "string",
					"name": "nombre",
					"type": "string"
				},
				{
					"internalType": "string",
					"name": "nacionalidad",
					"type": "string"
				},
				{
					"internalType": "uint256",
					"name": "edad",
					"type": "uint256"
				}
			],
			"name": "registrarVotante",
			"outputs": [],
			"stateMutability": "nonpayable",
			"type": "function"
		},
		{
			"inputs": [
				{
					"internalType": "address",
					"name": "addressCandidato",
					"type": "address"
				}
			],
			"name": "votar",
			"outputs": [],
			"stateMutability": "nonpayable",
			"type": "function"
		}
	]
}